:020000040800F2
:100000000000022005220008812100088321000849
:1000100085210008872100088921000800000000D0
:100020000000000000000000000000008B2100081C
:100030008D210008000000008F2100089121000898
:1000400055220008552200085522000855220008B4
:1000500055220008552200085522000855220008A4
:10006000552200085522000855220008A121000849
:100070005522000855220008552200085522000884
:100080005522000855220008552200085522000874
:100090005522000855220008552200085522000864
:1000A0005522000855220008552200085522000854
:1000B000552200085522000855220008AD210008ED
:1000C0005522000855220008552200085522000834
:1000D0005522000855220008552200085522000824
:1000E0005522000855220008552200085522000814
:1000F0005522000855220008552200085522000804
:1001000055220008552200085522000855220008F3
:1001100055220008552200085522000855220008E3
:1001200055220008552200085522000855220008D3
:1001300055220008552200085522000855220008C3
:1001400055220008552200085522000855220008B3
:1001500055220008552200085522000855220008A3
:100160005522000855220008552200085522000893
:100170005522000855220008552200080000000002
:08018000552200085522000879
:1001880010B5054C237833B9044B13B10448AFF3C9
:1001980000800123237010BD0C0000200000000027
:1001A800A022000808B5034B1BB103490348AFF36D
:1001B800008008BD0000000010000020A0220008F8
:1001C80053B94AB9002908BF00281CBF4FF0FF31B6
:1001D8004FF0FF3000F07AB9ADF1080C6DE904CEAC
:1001E80000F006F8DDF804E0DDE9022304B070470A
:1001F8002DE9F0478C460D460446089E002B51D148
:100208008A4217466DD9B2FA82FEBEF1000F0BD0B2
:10021800CEF1200C01FA0EF520FA0CFC02FA0EF7CA
:100228004CEA050C00FA0EF44FEA174A250CBCFB01
:10023800FAF81FFA87F90AFB18CC45EA0C4508FBBF
:1002480009F3AB420AD9ED1908F1FF3280F0238196
:10025800AB4240F22081A8F102083D44ED1AA4B255
:10026800B5FBFAF00AFB105544EA054400FB09F90E
:10027800A14509D9E41900F1FF3380F00A81A145AD
:1002880040F2078102383C44A4EB090440EA0840E4
:100298000021002E61D024FA0EF40023346073602C
:1002A800BDE8F0878B4207D9002E54D0002186E89C
:1002B80021000846BDE8F087B3FA83F1002940F031
:1002C8008E80AB4202D3824200F2FA80841A65EB38
:1002D80003050120AC46002E3FD086E81010BDE88B
:1002E800F08712B90127B7FBF2F7B7FA87FEBEF11C
:1002F800000F34D1EB1B3A0C1FFA87FC0121B3FB2A
:10030800F2F8250C02FB183345EA03450CFB08F309
:10031800AB4207D9ED1908F1FF3002D2AB4200F227
:10032800D1808046ED1AA3B2B5FBF2F002FB10555E
:1003380043EA05440CFB00FCA44507D9E41900F185
:10034800FF3302D2A44500F2B8801846A4EB0C048F
:1003580040EA08409DE731463046BDE8F087CEF1D7
:10036800200405FA0EF307FA0EF720FA04F83A0CFF
:1003780025FA04F448EA0308B4FBF2F14FEA1845F9
:1003880002FB11441FFA87FC45EA044501FB0CF304
:10039800AB4200FA0EF409D9ED1901F1FF3080F0F3
:1003A8008A80AB4240F2878002393D44EB1A1FFA3B
:1003B80088F5B3FBF2F002FB103345EA034500FB76
:1003C8000CF3AB4207D9ED1900F1FF386FD2AB42FD
:1003D8006DD902383D44EB1A40EA01418FE7C1F17B
:1003E800200722FA07F88B4005FA01F448EA0303CC
:1003F80020FA07FE4FEA134CFD404EEA040EB5FB07
:10040800FCF94FEA1E440CFB19551FFA83F844EA1D
:10041800054509FB08F4AC4202FA01F200FA01FAB8
:1004280008D9ED1809F1FF3043D2AC4241D9A9F1FE
:1004380002091D442D1B1FFA8EFEB5FBFCF00CFBB8
:1004480010554EEA054400FB08F8A04507D9E41802
:1004580000F1FF3529D2A04527D902381C4440EACB
:100468000940A4EB0804A0FB02894C45C6464D464A
:1004780015D312D056B1BAEB0E0364EB050404FA97
:1004880007F7CB401F43CC40376074600021BDE8BC
:10049800F0871846F8E69046E0E6C245EAD2B8EB9F
:1004A800020E69EB03050138E4E72846D7E7404622
:1004B80091E78146BEE7014678E702383C4445E7C4
:1004C800084608E7A8F102083D442BE7704700BF3B
:1004D80038B50E4A0E4B054618784FF47A73B3FBBD
:1004E800F0F31068B0FBF3F000F0A8F8044658B930
:1004F8000F2D09D8024629464FF0FF3000F05EF86C
:10050800044B20461D6038BD012038BD080000207E
:10051800000000200400002008B50B4B1A6842F4C4
:1005280000721A601A6842F480621A601A6842F40B
:1005380080721A60032000F02FF80020FFF7C8FF30
:1005480001F07EFD002008BD003C0240034A044B38
:1005580011681B780B441360704700BF2800002007
:1005680000000020014B1868704700BF28000020D9
:1005780038B50446FFF7F6FF631C1CBF054B1B7814
:10058800054618BFE418FFF7EDFF401B8442FAD870
:1005980038BD00BF00000020074AD36823F4E06399
:1005A8001B041B0C43F0BF63000243F4003300F448
:1005B800E0600343D360704700ED00E0174B30B5AF
:1005C800DC68C4F30224C4F10703251D042B28BFEB
:1005D8000423062D4FF0010505FA03F303F1FF3359
:1005E8008CBF033C00241940A14005FA04F4013CE7
:1005F8002240002842EA01024FEA0212AFBF00F18E
:10060800604000F00F00064BD2B2A5BF00F5614074
:10061800D2B21A5480F8002330BD00BF00ED00E0CC
:1006280014ED00E04209012300F01F0003FA00F076
:10063800014B43F82200704700E100E00138B0F1B7
:10064800807F0AD2064B074A5860F02182F82310AF
:100658000020072298601A6070470120704700BF89
:1006680010E000E000ED00E0044B1A6804280CBF1D
:1006780042F0040222F004021A60704710E000E021
:10068800704708B5FFF7FCFF08BD00000368DAB241
:1006980023F47F7323F003031821103AB2FBF1F21D
:1006A8000449032A88BF0433895C8365C165806D6A
:1006B800704700BFB822000870B50446FFF752FF24
:1006C8000546002C71D0002384F8343022680223B8
:1006D80084F83530136823F00103136021680B6830
:1006E800D8073CD40B68324D6268A0691D40A368E6
:1006F8001343E26813432269134362691343E269AF
:1007080003431343226A1343626A042A43EA050334
:1007180001BF266BE56A35432B430B604B69042AFE
:1007280023F0070343EA02030BD1A26AE56A1343E5
:100738003DB1F8B9012A2DD001D3022A01D1EA012D
:100748002BD44B612046FFF7A1FFE26D3F23934076
:10075800836000200123606584F8353070BDFFF7A1
:1007680001FF401B0528B9D920236365032084F8BD
:10077800350070BDB0F5005F13D1032AE1D801A0A0
:1007880050F822F0A307000847070008A30700084D
:100798009D070008B5F1C07FD3D1402363650120D0
:1007A800E5E7022AF9D9032AC8E7012070BD00BF8E
:1007B8003F8010F070B590F83440012C36D00124F9
:1007C80080F8344090F83540866D012C4FF00005D4
:1007D8004FF0020428D180F8354004684565256843
:1007E80025F48025256063608368402B0EBFA260D6
:1007F800A160E260C26D08BFE1603F239340B3602F
:10080800236843F016032360636943F08003636140
:10081800036C1BB1236843F008032360236843F08B
:1008280001032360002070BD80F83450022070BDA1
:1008380090F83530022B03D08023436501207047A0
:100848000268052380F83530136823F0010313602C
:1008580000207047F7B5002301935A4B856D1F6838
:10086800C36D2E6808229A40164204460CD00168CF
:100878000868400708D5086820F004000860AA60E6
:10088800626D42F00102626501229A40164208D068
:1008980021684969090641BFAA60626D42F00202F7
:1008A800626504229A40164208D0216809688807C0
:1008B80041BFAA60626D42F00402626510229A404C
:1008C800164210D02368196809070CD5AA601A685F
:1008D800500335D51B68190301D4236C00E0A36CC1
:1008E8000BB120469847E16D20228A40164238D045
:1008F80023681868C60634D5AA6094F83520052AF6
:100908001A6825D122F016021A605A6922F080026C
:100918005A61226C0AB9A26C1AB11A6822F008024C
:100928001A603F238B40AB60002384F834300123E6
:1009380084F83530236D0BB12046984703B0F0BDDD
:100948001A68D2055EBF1A6822F008021A60C4E766
:10095800500328D51B68190332D4636C0BB12046A9
:100968009847636D002BE9D0636DDA0719D5052325
:10097800226884F83530136823F0010313604FF4BC
:100988001653B7FBF3F7019B01339F42019302D340
:100998001368DB07F7D4002384F83430012384F884
:1009A8003530E36CC7E71A6812F4807208D1196809
:1009B80021F010011960012384F8342084F83530BF
:1009C800E36BCBE708000020406D70472DE9F04F3E
:1009D80085B00B68DFF8AC81684ADFF8AC91019309
:1009E80000234FF0010E019C0EFA03FE0EEA0406E6
:1009F800B64540F0AE804C6824F01007022F16D19F
:100A08004FEAD30A00EB8A0A03F0070BDAF8205002
:100A18004FEA8B0B4FF00F0C0CFA0BFC25EA0C0C71
:100A28000D6905FA0BF545EA0C05CAF820504FEA9E
:100A3800430A0325D0F800B005FA0AF5ED4304F09F
:100A4800030C0BEA050B0CFA0AFC013F4CEA0B0CF1
:100A5800012FC0F800C011D8876807EA050BCF68D6
:100A680007FA0AFC4CEA0B078760476827EA0E0E6C
:100A7800C4F300179F4047EA0E074760C7683D4028
:100A88008F6807FA0AF73D43C560E50061D54FF066
:100A9800000BCDF80CB0D8F84470394D47F48047B6
:100AA800C8F84470D8F8447007F480470397039F48
:100AB80023F0030707F1804707F59C3703F0030C81
:100AC800D7F808A04FEA8C0C4FF00F0E0EFA0CFE68
:100AD800A8422AEA0E0E43D005F58065A84241D007
:100AE80005F58065A8423FD005F58065A8423DD050
:100AF80005F58065A8423BD048453BD005F5006523
:100B0800A84239D005F58065A84214BF08250725F5
:100B180005FA0CF545EA0E05BD601568F74314F4AF
:100B2800803F0CBF3D4035431560556814F4003FC5
:100B38000CBF3D4035435560956814F4801F0CBFC9
:100B48003D4035439560D568A40254BF3D403543C8
:100B5800D5600133102B7FF444AF05B0BDE8F08FAA
:100B68005D46D5E70125D3E70225D1E70325CFE781
:100B78000425CDE70525CBE70625C9E7003C01405C
:100B88000000024000380240001402400AB18161AE
:100B980070470904FBE70268536913F480630DD0BA
:100BA8006FF48063536104230364202200230363EA
:100BB80080F83C3080F83D20012070471846704787
:100BC8002DE9F843044617469946C1F307488EB203
:100BD8002568B8F1010F0CBF6B69AB6936EA0303EE
:100BE80014BF0120002008B9BDE8F8836B695A05D5
:100BF80012D52B6843F400732B606FF480636B612C
:100C08000423236420220023236384F83C3084F8DF
:100C18003D200120BDE8F8837B1CD9D04FB90023C3
:100C28002022236384F83C3084F83D200320BDE86B
:100C3800F883FFF797FCA0EB09008742C8D2EEE7DC
:100C48002DE9F843089E044690461F46C1F307491C
:100C58008DB22368B9F1010F0CBF5B699B6935EA56
:100C680003030CBF01230023434502D00020BDE845
:100C7800F8837B1CEDD05FB900232022236384F81E
:100C88003C3084F83D20032084F83E30BDE8F883EA
:100C9800FFF768FC801B8742DBD2EDE770B504469E
:100CA8000D46164623685B691B0601D5002070BDFA
:100CB8002046FFF770FFA8B96A1CF3D065B9236C0A
:100CC80043F02003236420220023236384F83C306C
:100CD80084F83D20032070BDFFF744FC801B85424B
:100CE800E0D2ECE7012070BD2DE9FF41984603688A
:100CF8000B9D16461A6842F480621A601A6842F41C
:100D080080721A600F4600950A9B00224FF001116D
:100D18000446FFF795FF80B923682F49FFB207F013
:100D2800FE021A6120462B460A9AFFF749FF40B196
:100D3800236C042B01D1012000E0032004B0BDE89E
:100D4800F081236803905A6903929B6903932A46AA
:100D58000A99039B2046FFF7A1FF40B1236C042B9F
:100D6800EBD12268136843F400731360E3E7B8F12A
:100D7800010F236824D1F6B21E612A460A9920463B
:100D8800FFF78CFF02460028E8D121680B6843F47E
:100D980080730B60204600950A9B4FF00111FFF706
:100DA8004FFF0028C9D123680A9A0B4947F0010769
:100DB8001F6120462B46FFF703FF0028B8D1BDE787
:100DC800320A1A610A992A462046FFF767FF002867
:100DD800C4D12368CFE700BF0200010070B5044604
:100DE800002862D090F83D3003F0FF021BB980F86C
:100DF8003C2001F06DF922682D4E2E4D242384F8F5
:100E08003D30136823F00103136000F0EDFF6368C1
:100E18002268B0FBF5F5B34284BF4FF4967169437D
:100E2800556091BF691C4FF47A75B1FBF5F101313A
:100E3800B342116221D85B00B0FBF3F0C0F30B039F
:100E4800032B98BF0420216AE369D0610B43136028
:100E5800E16823690B439360A16963690B43D3601D
:100E6800136843F00103136000202023206484F8F2
:100E78003D30206384F83E0070BDA16849B903EB9A
:100E88004303B0FBF3F0C0F30B0363B140F400403D
:100E9800D9E719214B43B0FBF3F0C0F30B0313B1AF
:100EA80040F44040CFE70120CDE7012070BD00BFEE
:100EB800A086010040420F002DE9F047044686B0A5
:100EC8001F46002303930D461646DDF838A0BDF8EB
:100ED8003C90FFF747FB94F83D30202B804603D029
:100EE800022006B0BDE8F0874F4B46F2A8121B68F7
:100EF800B3FBF2F2192353430393039B5A1E039245
:100F08003BB92022236384F83D2084F83C30032039
:100F1800E7E721688B699A07EFD494F83C30012BF6
:100F2800DED0012384F83C300B68DB075EBF0B681A
:100F380043F001030B600B6823F400630B6022236A
:100F480084F83D30402384F83E300022374B226439
:100F5800A4F82A90E362638DC4F824A09BB2238589
:100F6800002B43D0A06BDFF8C8E0C0F83CE0DFF806
:100F7800C4E0026442648264026510315246C0F8DB
:100F88004CE0FFF717FC23230093CDF804803B4681
:100F9800324629462046FFF7A7FE40B1236C042BB2
:100FA8004FF00003B1D184F83C30012099E7236861
:100FB800B9F1010F0BBF1A685A6822F4806242F433
:100FC80080520CBF1A605A60002204925969049139
:100FD80099690491049984F83C205A6842F4807213
:100FE8005A605A6842F400625A607AE723230093F1
:100FF800CDF804803B46324629462046FFF774FE6A
:101008000028CBD1236805905A6905929A69059200
:10101800059A1A6842F400721A60202384F83D3059
:1010280084F83C005DE700BF080000200000FFFFD7
:1010380085100008511000087047704770477047C6
:10104800704770477047704710B5846BFFF7BCFC5A
:10105800022812D02268136823F4806313600023E7
:101068002022638584F83D2084F83E30236C43F0C9
:10107800100323642046FFF7E6FF10BD806B90F84D
:101088003D2090F83E10D2B2212A08B5C9B20368B3
:1010980003D0222A0CD120290AD15A6822F40062EE
:1010A8005A60002242855A6842F440725A6008BD6C
:1010B8001A6822F480621A601A6842F400721A6090
:1010C8005A6822F480525A605A6822F400625A60C0
:1010D80000234385036C13B1FFF7B5FF08BD202239
:1010E80080F83D2090F83E2080F83E30402A02D11A
:1010F80000F094FE08BDFFF7A0FF08BD7047000090
:1011080090F83D30293B012B10B50368044639D8C7
:1011180000220263282280F83D201A6822F4006227
:101128001A605A6812F4006254D05A68606B22F44C
:1011380000625A6090F83530012B394B31D0036585
:10114800FFF776FB50B12268606B136823F0010348
:101158001360202384F83D30036D984794F83D30A0
:10116800282B0ED1236C5B070BD52E4BE362202274
:1011780000232363204684F83D2084F83E30FFF79F
:1011880060FF10BD90F83D20602A05D05A6812050E
:101198005CBF202280F83D200022226384F83E2094
:1011A800BBE7A06B0365FFF743FB0028D6D0226896
:1011B8005369580604D5636A1269591C61621A702A
:1011C8002268A06B136823F001031360202384F8BE
:1011D8003D30C1E794F83D10602914D1202184F8EE
:1011E8003D1022645A69510604D5626A1B69511C74
:1011F800616213702268136823F0010313602046AC
:10120800FFF77CFFAAE75A69520604D5626A1B6990
:10121800511C616213702046FFF715FF9EE700BF5F
:10122800051900080000FFFF0368F0B59D695969BA
:101238005A6890F83E40E4B2102C8DB002D0402C91
:1012480040F0558211F0011F66D0970564D590F8DB
:101258003E40402C43D1046D002C3BD1446C04F03B
:10126800FE041C61984E994C2E400C40002E00F054
:101278009F81974D0D40002D00F06681550540F186
:101288006381002C40F0608190F83D20058D90F836
:101298003E10C46AD2B2C9B2002D40F00581212A9D
:1012A80040F00481042C00F06C81082C00F0698166
:1012B80014F5803F00F065815A6822F4E0625A60B4
:1012C8001123036380F83E50202380F83D30FFF758
:1012D800B3FEF6E0446C44F00104E4B2C1E70469EB
:1012E800B4F5804F05D190F83D40212C446CF2D1E3
:1012F800B5E7046D34B9446CE41104F0060444F015
:10130800F004AEE7046D012CACD1446CE41104F098
:10131800060444F0F104A4E76E4C0C401CB1960599
:1013280001D5446CD9E76C4C0C40002C9AD094053C
:1013380098D590F83E40C66AD0F830E090F83D70F5
:10134800222FE4B240F0A880076D47B9402C06D19F
:1013580001975C6901949C690194019C82E7046D82
:101368008CB90769B7F5404F0DD102945C690294B6
:101378009C690294029C1C6844F480741C60046D8F
:10138800013404656EE7448DA4B254B903945C69D2
:1013980003949C690394039C1C6844F400741C60C7
:1013A80019E0448DA4B2012C42D116F5803F1BD11F
:1013B8001C6824F480641C605C6814F400640CD01D
:1013C8001C6824F480641C60002404945C69049400
:1013D8009C690494049C0024D3E705945C690594F3
:1013E8009C690594059CD7E7042E15D0082E13D0C8
:1013F800BEF1120F10D0C46A022C1C6814BF24F46A
:10140800806444F480641C60002406945C6906943B
:101418009C690694069CDEE71C6824F480641C60C2
:10142800002407945C6907949C690794079CB3E7B8
:10143800448DA4B2022C1CD1C46A022C1C681DBFA6
:1014480024F480641C601C6844F4806418BF44F46D
:1014580000641C605C68270542BF5C6844F48054E3
:101468005C60002408945C6908949C690894089C52
:10147800B1E71C6844F480641C605C68260542BFC0
:101488005C6844F480545C60002409945C690994A5
:101498009C690994099C9EE700240A945C690A9453
:1014A8009C690A940A9CDDE6212A03D0402908D1C8
:1014B800222A06D1428D92B282B95A6822F48062F9
:1014C8005A600DB0F0BD00BF040010000400010018
:1014D80080000100080001000200010090F83E2091
:1014E800402A27D1026D7AB9C26C012A826C05D1D3
:1014F800D2B21A61036D02330365E2E7C2F3072231
:101508001A61036D0133F7E7026D012A02D1826C7B
:10151800D2B2F5E7026D022AD3D190F83D20222AF3
:1015280004D11A6842F480721A60CAE790F83D2024
:10153800212AC6D1426A511C416212781A61438D30
:10154800013B9BB24385BCE7002CBAD09405B8D5C3
:10155800C16A90F83D20212AB3D1428D92B2002A67
:10156800E8D104290DD008290BD011F5803F08D007
:10157800596821F4E06159601123036380F83E2023
:10158800A2E65A6822F4E0625A601A6842F40072CD
:101598001A6000232022036380F83D2090F83E2043
:1015A80080F83E30402A7FF492AEFFF74BFD88E783
:1015B800904D0D40002D41D051053FD5002C3DD117
:1015C80090F83D20222A7FF47CAF428D92B2032A04
:1015D80013D9426A1B69511C41621370438D013B48
:1015E8009BB24385438D9BB2032B7FF46AAF02689D
:1015F800536823F48063536063E7012A3FF661AFC1
:101608001A6822F480621A605A6822F4E0625A600A
:10161800426A1B69511C41621370438D013B9BB2A6
:101628004385202380F83D30046390F83E3080F8ED
:101638003E40402B58D100F0F1FB42E7002C3FF42C
:1016480040AF97057FF53DAFC16A428D92B2042A3B
:10165800426A08D1596821F480615960511C1B699C
:10166800416213706BE7448DA4B2032C08D159680A
:1016780021F480615960196821F480611960EDE7EF
:10168800448DA4B2022CE9D10139012919689DBF02
:1016980021F480611960196841F4007198BF41F420
:1016A800807119601B69511C41621370438D013BA5
:1016B8009BB24385436A5A1C4262026812691A70D7
:1016C800438D0268013B9BB24385536823F4407302
:1016D8005360202380F83D300023036390F83E20B8
:1016E80080F83E30402AA5E7FFF7A7FCE9E6424C20
:1016F8000C4074B196050CD599699B6981F0040179
:101708001D06C1F3800154BF8289028BFFF798FC44
:10171800D7E63A4C0C40002C74D0940572D590F85A
:101728003D20596821F4E061596000210B91596905
:101738000B91196841F0010119600B99196821F49E
:101748008061196059680905D2B20CD590F83D102E
:10175800222903D090F83D102A2929D1816B0968E4
:10176800496889B24185418D89B2E1B159694F070C
:1017780008D5416A1B694C1C44620B70438D013BC0
:101788009BB2438501684B695E0608D5436A0969BF
:101798005C1C44621970438D013B9BB24385036C0A
:1017A80043F004030364036C23B1FFF7A9FC88E644
:1017B800416BD4E7A2F1280102290AD8104AC26273
:1017C8002022036380F83D2080F83E30FFF739FC83
:1017D80077E6036B222B02D0222A7FF472AE002315
:1017E8002022036380F83D2080F83E30FFF727FC75
:1017F80067E600BF40000100020001001000010080
:101808000000FFFF394E3A4C2E400C40002E36D0D7
:10181800384D0D403DB3550525D524BB90F83D10F6
:10182800428D92B2C9B2002A3FF44BAE426A541CB0
:10183800446212781A61428D013A92B24285428D11
:1018480092B2002A7FF43DAE29297FF43AAE5A6855
:1018580022F480625A6021230363282380F83D30F4
:10186800FFF7ECFB2DE6002C3FF42BAE94057FF53B
:1018780028AE428D92B2002A7FF45CAE21E61E4D5E
:101888000D4035B3510524D51CBB90F83D20418D42
:1018980089B2D2B200293FF414AE416A1B694C1CCC
:1018A80044620B70438D013B9BB24385438D9BB2D1
:1018B800002B7FF406AE2A2A7FF403AE0268536831
:1018C80023F48063536022230363282380F83D3088
:1018D8008CE7002C3FF4F5AD92057FF5F2AD428D13
:1018E80092B2002A3FF4EDAD426AB7E60400100058
:1018F800040001008000010040000100806B08B571
:101908000368416B1A6822F480621A6000224285DB
:101918000A65816B0A6590F83D1060294FF0200137
:1019280080F83D1080F83E2007D102641A6822F042
:1019380001021A60FFF7E2FB08BD1A6822F00102F3
:101948001A60FFF780FB08BD2DE9F341044618B97A
:10195800012002B0BDE8F0810368DD0710D42368D8
:10196800980758D423681A0700F19A8023685B0700
:1019780000F1B880A269002A40F019810020E8E748
:10198800A64B9A6802F00C02042A07D09A6802F063
:101998000C02082A0AD15B68590207D59F4B1B68BD
:1019A8009A03DCD56368002BD9D1D1E763689B4DD6
:1019B800B3F5803F11D12B6843F480332B60FEF7D9
:1019C800D1FD964D06462B689B03C8D4FEF7CAFD89
:1019D800801B6428F7D90320BBE7B3F5A02F04D1F7
:1019E8002B6843F480232B60E5E72A6822F48032D1
:1019F8002A602A6822F480222A60002BDFD1FEF7B1
:101A0800B1FD06462B689F03A9D5FEF7ABFD801BE9
:101A18006428F7D9DFE7814B9A6812F00C0F07D0DA
:101A28009A6802F00C02082A11D15B685E020ED493
:101A38007A4B1A68950702D5E268012A88D11A6894
:101A4800216922F0F80242EAC1021A608AE7E268D4
:101A5800734BB2B101221A60FEF784FD6F4D064642
:101A68002B68980707D52B68226923F0F80343EA07
:101A7800C2032B6076E7FEF775FD801B0228EFD9BD
:101A8800A9E71A60FEF76EFD644D06462B689907B4
:101A98007FF568AFFEF766FD801B0228F6D99AE746
:101AA8006269604B7AB101221A60FEF75BFD5B4DFB
:101AB80006466B6F9F073FF559AFFEF753FD801B36
:101AC8000228F6D987E71A60FEF74CFD534D064603
:101AD8006B6F98077FF54AAFFEF744FD801B02281D
:101AE800F6D978E74D4B1A6C12F0805228D1019242
:101AF8001A6C42F080521A641B6C03F080530193F5
:101B0800019B0126484D2B68D9051BD5A368434D79
:101B1800012B27D12B6F43F001032B67FEF722FD22
:101B28003E4D074641F288382B6F9B0739D5002E6A
:101B38003FF420AF394A136C23F08053136419E73C
:101B48000026DFE72B6843F480732B60FEF70AFD5D
:101B580007462B68DA05D9D4FEF704FDC01B022816
:101B6800F7D938E7052B04D12B6F43F004032B6713
:101B7800D0E72A6F22F001022A672A6F22F00402B6
:101B88002A67002BCAD1FEF7EDFC41F288380746D8
:101B98002B6F9807CBD5FEF7E5FCC01B4045F7D95E
:101BA80019E7FEF7DFFCC01B4045BDD913E71B4D05
:101BB800AB6803F00C03082B3FF4CAAE1B4E00239E
:101BC800022A336034D1FEF7CDFC07462B68990111
:101BD8001ED4226AE3691343626A43EA8213E26A03
:101BE80043EA0263A26A0D4C5208013A43EA0243EF
:101BF8006B6001233360FEF7B5FC054623689A0144
:101C08003FF5BCAEFEF7AEFC401B0228F6D9E2E673
:101C1800FEF7A8FCC01B0228D8D9DCE60038024031
:101C280000004742800E4742007000406000474273
:101C3800FEF798FC04462B689B017FF59FAEFEF7E4
:101C480091FC001B0228F6D9C5E600BF134908B568
:101C58008B6803F00C03042B03D0082B03D0104827
:101C680008BD104808BD4A684B68496813F48003EA
:101C780014BF0C480A48C1F3881118BF002302F0AA
:101C88003F02A1FB0001FEF79BFA044B5B68C3F31C
:101C9800014301335B00B0FBF3F008BD003802409C
:101CA8000024F40000127A002DE9F0410D460446A4
:101CB80010B90120BDE8F081444B1A6802F00F0208
:101CC8008A4228D321688F072DD4C80740D43F4BB8
:101CD8001A6802F00F02954266D3226851076CD445
:101CE800130707D53A4A2169936823F4604343EA06
:101CF800C1039360FFF7AAFF354B364A9B68C3F3CD
:101D08000313D35CD840344B18600020FEF7E0FB87
:101D18000020BDE8F081CAB21A701B6803F00F03F7
:101D28009942C6D1CEE72A4B11F0040F1EBF9A681C
:101D380042F4E0529A600E0742BF9A6842F4604249
:101D48009A609A68A06822F0F00202439A60BCE7A1
:101D580062681F4B012A1DD11B6813F4003FA8D0ED
:101D68001B4EB36823F003031343B360FEF7FAFB7B
:101D780041F288380746B368626803F00C03B3EB96
:101D8800820FA4D0FEF7EEFBC01B4045F3D9032019
:101D9800BDE8F081911E01291B6802D813F0007F6D
:101DA800DDE713F0020FDAE7EAB21A701B6803F0F6
:101DB8000F039D427FF47DAF8FE70549E0688B688C
:101DC80023F4E05303438B608AE700BF003C0240E2
:101DD80000380240DB22000808000020014B186888
:101DE800704700BF08000020044B054A9B68C3F3F6
:101DF8008223D35C034A1068D840704700380240F9
:101E0800EB22000808000020030903EB830300F01D
:101E18000F0000EB4300C0B27047000008B5154B37
:101E280002681B689A4223D1134A1078FFF7ECFF27
:101E3800124B18705078FFF7E7FF114B1870907825
:101E4800FFF7E2FF0F4B1870D078FFF7DDFF0E4B5E
:101E580018701079FFF7D8FF0C4B18705079FFF7FE
:101E6800D3FF0B4B18709079FFF7CEFF094B187012
:101E780008BD00BF2C000020840000208100002045
:101E8800820000208B000020ED000020F5000020DB
:101E980080000020EC00002030B595B0274B0021D1
:101EA80001911A6C42F080521A641B6C03F0805343
:101EB8000193019B224B02911A6842F480421A60F6
:101EC8001B6803F480430293029B012308934FF499
:101ED800803309934FF480030F930823022410934F
:101EE80004254FF4A87308A80E941193129413951F
:101EF800FFF72AFD00B1FEE70F23039305904FF487
:101F0800A053052103A8049406930793FFF7CCFE7A
:101F1800044600B1FEE7FFF761FF4FF47A73B0FBA8
:101F2800F3F0FEF78BFB2846FEF79EFB2246214680
:101F38004FF0FF30FEF742FB15B030BD00380240CD
:101F48000070004000B58BB00024354DFEF7E4FA70
:101F5800FFF7A2FF02942B6B324843F080032B63F8
:101F68002B6B03F080030293029B03942B6B43F0CB
:101F780008032B632B6B03F008030393039B049460
:101F88002B6B43F002032B632B6B03F002032246F7
:101F980004934FF48051049BFEF7F8FD4FF48053EF
:101FA800059305A901231F48069307940894FEF793
:101FB8000DFD05942B6B43F400132B632B6B1A4D0B
:101FC80003F400132246059321460B20059BFEF7D8
:101FD800F5FA0B20FEF726FB144B154AAC6085E892
:101FE8000C0028464FF48043EC602B616C61AC61B7
:101FF800EC612C62FEF7F2FE80B90E4C0E4E009496
:102008000723019300220123D0212846FEF754FF1D
:10201800C820FEF7ADFA23783370F0E7FEE700BF7B
:1020280000380240000C02402C000020A08601006D
:10203800005400408400002083000020FEE70000D8
:1020480013B5224B002400945A6C42F480425A641F
:102058005A6C02F480420092009A01941A6C42F081
:1020680080521A641B6C03F0805301930320019B78
:10207800FEF792FA224621466FF00B00FEF79EFA11
:10208800224621466FF00A00FEF798FA22462146BA
:102098006FF00900FEF792FA224621466FF004001D
:1020A800FEF78CFA224621466FF00300FEF786FA07
:1020B800224621466FF00100FEF780FA22462146AB
:1020C8004FF0FF30FEF77AFA02B010BD0038024038
:1020D80030B50268224B9A4287B005463ED1C023EC
:1020E80001931223029301230393032304930423EC
:1020F8000DEB03011B480593FEF768FC00231A4A01
:102108000093116C194C41F400111164126C1849B8
:10211800A36002F400120092009AE3604FF000728C
:1021280084E806004FF48062226120464FF48072F2
:102138006361A361E26123626362FEF7BDFA18B1CD
:1021480079210C48FFF77AFF0022AC631F20114663
:10215800A563FEF733FA1F20FEF764FA07B030BD17
:102168000054004000040240003802408C00002067
:1021780010600240C02200087047FEE7FEE7FEE755
:10218800FEE770477047704708B5FEF7DFF9BDE80E
:102198000840FEF776BA00000148FEF75BBB00BFB7
:1021A8008C0000200148FFF73FB800BF2C0000203A
:1021B8000F49D1F8883043F47003C1F888300D4BCB
:1021C8001A68002042F001021A6098601A6822F02A
:1021D800847222F480321A60074A5A601A6822F41C
:1021E80080221A60D8604FF000638B60704700BF90
:1021F80000ED00E00038024010300024DFF834D051
:10220800002103E00C4B5B58435004310B480C4B46
:1022180042189A42F6D30B4A02E0002342F8043BE4
:10222800094B9A42F9D3FFF7C3FF00F011F8FFF703
:1022380089FE7047000002200423000800000020E7
:102248000C0000200C000020F8000020FEE7000031
:1022580070B50D4E0D4CA41BA4100025A54209D144
:102268000B4E0C4C00F018F8A41BA4100025A54236
:1022780005D170BD56F8253098470135EEE756F878
:10228800253098470135F2E7FC220008FC220008B7
:10229800FC22000800230008F8B500BFF8BC08BC01
:1022A8009E467047F8B500BFF8BC08BC9E4670470C
:1022B80000061016000610162E2E5C5372635C730F
:1022C800746D3332663478785F68616C5F6D7370F3
:1022D8002E63000000000000000000010203040655
:0C22E800070809000000000102030400C8
:0822F40004DFFF7F0100000080
:0422FC00AD01000828
:042300008901000847
:0C23040001000000100000000024F400A4
:0400000508002205C8
:00000001FF
